:1000000009C016C015C028C013C012C011C010C04E
:100010000FC00EC011241FBECFE9CDBF20E0A0E667
:10002000B0E001C01D92A436B207E1F711D094C030
:10003000E7CF61E080E050C061E080E073D088EEFF
:1000400093E02FD060E080E06DD088EE93E029C08F
:1000500033D0EFDFF1DFFECF1F920F920FB60F927A
:1000600011248F939F93AF93BF93809160009091E1
:100070006100A0916200B09163000196A11DB11DC5
:100080008093600090936100A0936200B09363003E
:10009000BF91AF919F918F910F900FBE0F901F90C6
:1000A0001895009741F0EBE2F1E03197F1F700C0CD
:1000B00000000197F6CF089583B7816083BF8FB5A5
:1000C00083608FBD89B7826089BF12BE789417B8EC
:1000D00086B1826886B908958630C0F447B321E0BE
:1000E00030E061110AC0B90102C0660F771F8A951E
:1000F000E2F7CB018095842308C0B90102C0660FE6
:10010000771F8A95E2F7CB01842B87BB0895811175
:1001100003C08FB58F7704C0813019F48FB58F7D00
:100120008FBD0895CF93DF93863098F4D62FC82FD4
:10013000823008F4ECDF28B381E090E001C0880F42
:10014000CA95EAF7D11103C08095822301C0822BA2
:0C01500088BBDF91CF910895F894FFCF99
:00000001FF
